{
  "contractName": "AdminContract",
  "abi": [
    {
      "inputs": [],
      "payable": false,
      "stateMutability": "nonpayable",
      "type": "constructor"
    },
    {
      "constant": true,
      "inputs": [],
      "name": "getAdminAddress",
      "outputs": [
        {
          "internalType": "address",
          "name": "",
          "type": "address"
        }
      ],
      "payable": false,
      "stateMutability": "view",
      "type": "function"
    },
    {
      "constant": false,
      "inputs": [
        {
          "internalType": "address",
          "name": "newAddr",
          "type": "address"
        }
      ],
      "name": "setAdminAddress",
      "outputs": [],
      "payable": false,
      "stateMutability": "nonpayable",
      "type": "function"
    },
    {
      "constant": true,
      "inputs": [],
      "name": "getPayforHealthData",
      "outputs": [
        {
          "internalType": "uint256",
          "name": "",
          "type": "uint256"
        }
      ],
      "payable": false,
      "stateMutability": "view",
      "type": "function"
    },
    {
      "constant": false,
      "inputs": [
        {
          "internalType": "uint256",
          "name": "newPayforHealthData",
          "type": "uint256"
        }
      ],
      "name": "setPayforHealthData",
      "outputs": [],
      "payable": false,
      "stateMutability": "nonpayable",
      "type": "function"
    },
    {
      "constant": true,
      "inputs": [],
      "name": "getValidSection",
      "outputs": [
        {
          "internalType": "uint256",
          "name": "",
          "type": "uint256"
        }
      ],
      "payable": false,
      "stateMutability": "view",
      "type": "function"
    },
    {
      "constant": false,
      "inputs": [
        {
          "internalType": "uint256",
          "name": "newValidSection",
          "type": "uint256"
        }
      ],
      "name": "setValidSection",
      "outputs": [],
      "payable": false,
      "stateMutability": "nonpayable",
      "type": "function"
    },
    {
      "constant": true,
      "inputs": [],
      "name": "getUploadSection",
      "outputs": [
        {
          "internalType": "uint256",
          "name": "",
          "type": "uint256"
        }
      ],
      "payable": false,
      "stateMutability": "view",
      "type": "function"
    },
    {
      "constant": false,
      "inputs": [
        {
          "internalType": "uint256",
          "name": "newUploadSection",
          "type": "uint256"
        }
      ],
      "name": "setUploadSection",
      "outputs": [],
      "payable": false,
      "stateMutability": "nonpayable",
      "type": "function"
    },
    {
      "constant": true,
      "inputs": [],
      "name": "getAward",
      "outputs": [
        {
          "internalType": "uint256",
          "name": "",
          "type": "uint256"
        }
      ],
      "payable": false,
      "stateMutability": "view",
      "type": "function"
    },
    {
      "constant": false,
      "inputs": [
        {
          "internalType": "uint256",
          "name": "newAward",
          "type": "uint256"
        }
      ],
      "name": "setAward",
      "outputs": [],
      "payable": false,
      "stateMutability": "nonpayable",
      "type": "function"
    }
  ],
  "bytecode": "0x608060405234801561001057600080fd5b50336000806101000a81548173ffffffffffffffffffffffffffffffffffffffff021916908373ffffffffffffffffffffffffffffffffffffffff1602179055506702c68af0bb140000600181905550610e10600281905550603c60038190555067016345785d8a000060048190555061071c8061008f6000396000f3fe608060405234801561001057600080fd5b506004361061009e5760003560e01c8063a157def411610066578063a157def41461017f578063b2e6b9121461019d578063e1e70a06146101e7578063f1fc9d6a14610215578063fee50359146102435761009e565b80632c1e816d146100a35780636fa3ab8f146100e75780637cf9d200146101155780637d71812e1461013357806391d2776714610151575b600080fd5b6100e5600480360360208110156100b957600080fd5b81019080803573ffffffffffffffffffffffffffffffffffffffff169060200190929190505050610261565b005b610113600480360360208110156100fd57600080fd5b8101908080359060200190929190505050610366565b005b61011d610432565b6040518082815260200191505060405180910390f35b61013b61043c565b6040518082815260200191505060405180910390f35b61017d6004803603602081101561016757600080fd5b8101908080359060200190929190505050610446565b005b610187610512565b6040518082815260200191505060405180910390f35b6101a561051c565b604051808273ffffffffffffffffffffffffffffffffffffffff1673ffffffffffffffffffffffffffffffffffffffff16815260200191505060405180910390f35b610213600480360360208110156101fd57600080fd5b8101908080359060200190929190505050610545565b005b6102416004803603602081101561022b57600080fd5b8101908080359060200190929190505050610611565b005b61024b6106dd565b6040518082815260200191505060405180910390f35b6000809054906101000a900473ffffffffffffffffffffffffffffffffffffffff1673ffffffffffffffffffffffffffffffffffffffff163373ffffffffffffffffffffffffffffffffffffffff1614610323576040517f08c379a000000000000000000000000000000000000000000000000000000000815260040180806020018281038252600c8152602001807fe6b2a1e69c89e68e88e69d83000000000000000000000000000000000000000081525060200191505060405180910390fd5b806000806101000a81548173ffffffffffffffffffffffffffffffffffffffff021916908373ffffffffffffffffffffffffffffffffffffffff16021790555050565b6000809054906101000a900473ffffffffffffffffffffffffffffffffffffffff1673ffffffffffffffffffffffffffffffffffffffff163373ffffffffffffffffffffffffffffffffffffffff1614610428576040517f08c379a000000000000000000000000000000000000000000000000000000000815260040180806020018281038252600c8152602001807fe6b2a1e69c89e68e88e69d83000000000000000000000000000000000000000081525060200191505060405180910390fd5b8060038190555050565b6000600254905090565b6000600154905090565b6000809054906101000a900473ffffffffffffffffffffffffffffffffffffffff1673ffffffffffffffffffffffffffffffffffffffff163373ffffffffffffffffffffffffffffffffffffffff1614610508576040517f08c379a000000000000000000000000000000000000000000000000000000000815260040180806020018281038252600c8152602001807fe6b2a1e69c89e68e88e69d83000000000000000000000000000000000000000081525060200191505060405180910390fd5b8060028190555050565b6000600354905090565b60008060009054906101000a900473ffffffffffffffffffffffffffffffffffffffff16905090565b6000809054906101000a900473ffffffffffffffffffffffffffffffffffffffff1673ffffffffffffffffffffffffffffffffffffffff163373ffffffffffffffffffffffffffffffffffffffff1614610607576040517f08c379a000000000000000000000000000000000000000000000000000000000815260040180806020018281038252600c8152602001807fe6b2a1e69c89e68e88e69d83000000000000000000000000000000000000000081525060200191505060405180910390fd5b8060018190555050565b6000809054906101000a900473ffffffffffffffffffffffffffffffffffffffff1673ffffffffffffffffffffffffffffffffffffffff163373ffffffffffffffffffffffffffffffffffffffff16146106d3576040517f08c379a000000000000000000000000000000000000000000000000000000000815260040180806020018281038252600c8152602001807fe6b2a1e69c89e68e88e69d83000000000000000000000000000000000000000081525060200191505060405180910390fd5b8060048190555050565b600060045490509056fea265627a7a723158209eb25af0d5de2429b0904d82c150d1ab5c9f302fb6c4543f6c93f1e7051beb8164736f6c63430005100032",
  "source": "pragma solidity >=0.4.21 <0.7.0;\r\n\r\ncontract AdminContract{\r\n    address adminAddress;       // 具备管理权限的地址\r\n    uint payforHealthData;      // 单次授权消耗的以太币\r\n    uint validSection;          // 授权有效时间间隔\r\n    uint uploadSection;         // 上传有效时间间隔\r\n    uint award;                 // 用户上传数据可获得的奖励\r\n\r\n    constructor() public{\r\n        adminAddress = msg.sender;\r\n        payforHealthData = 200000000000000000;  // 0.2ETH\r\n        validSection = 1 * 60 * 60;\r\n        uploadSection = 60;\r\n        award = 100000000000000000;             // 0.1ETH\r\n    }\r\n\r\n    function getAdminAddress() public view returns(address){\r\n        return adminAddress;\r\n    }\r\n\r\n    function setAdminAddress(address newAddr) public{\r\n        require(msg.sender == adminAddress, \"没有授权\");\r\n        adminAddress = newAddr;\r\n    }\r\n\r\n    function getPayforHealthData() public view returns(uint){\r\n        return payforHealthData;\r\n    }\r\n\r\n    function setPayforHealthData(uint newPayforHealthData) public{\r\n        require(msg.sender == adminAddress, \"没有授权\");\r\n        payforHealthData = newPayforHealthData;\r\n    }\r\n\r\n    function getValidSection() public view returns(uint){\r\n        return validSection;\r\n    }\r\n\r\n    function setValidSection(uint newValidSection) public{\r\n        require(msg.sender == adminAddress, \"没有授权\");\r\n        validSection = newValidSection;\r\n    }\r\n\r\n    function getUploadSection() public view returns(uint){\r\n        return uploadSection;\r\n    }\r\n\r\n    function setUploadSection(uint newUploadSection) public{\r\n        require(msg.sender == adminAddress, \"没有授权\");\r\n        uploadSection = newUploadSection;\r\n    }\r\n\r\n    function getAward() public view returns(uint){\r\n        return award;\r\n    }\r\n\r\n    function setAward(uint newAward) public{\r\n        require(msg.sender == adminAddress, \"没有授权\");\r\n        award = newAward;\r\n    }\r\n}\r\n",
  "sourcePath": "E:\\MyProjects\\blokchain\\HealthChainServer\\contracts\\AdminContract.sol",
  "compiler": {
    "name": "solc",
    "version": "0.5.16+commit.9c3226ce.Emscripten.clang"
  },
  "schemaVersion": "3.0.23",
  "updatedAt": "2020-04-04T04:44:20.301Z",
  "networkType": "ethereum",
  "devdoc": {
    "methods": {}
  },
  "userdoc": {
    "methods": {}
  }
}