{
  "contractName": "HealthContract",
  "abi": [
    {
      "inputs": [
        {
          "internalType": "address",
          "name": "_owner",
          "type": "address"
        },
        {
          "internalType": "address",
          "name": "_adminContractAddr",
          "type": "address"
        }
      ],
      "payable": false,
      "stateMutability": "nonpayable",
      "type": "constructor"
    },
    {
      "payable": true,
      "stateMutability": "payable",
      "type": "fallback"
    },
    {
      "constant": true,
      "inputs": [
        {
          "internalType": "address",
          "name": "",
          "type": "address"
        }
      ],
      "name": "visitors",
      "outputs": [
        {
          "internalType": "string",
          "name": "organizationName",
          "type": "string"
        },
        {
          "internalType": "uint256",
          "name": "validDate",
          "type": "uint256"
        }
      ],
      "payable": false,
      "stateMutability": "view",
      "type": "function"
    },
    {
      "constant": true,
      "inputs": [
        {
          "internalType": "address",
          "name": "caller",
          "type": "address"
        }
      ],
      "name": "getUserInfo",
      "outputs": [
        {
          "internalType": "address",
          "name": "owner",
          "type": "address"
        },
        {
          "internalType": "uint32",
          "name": "visitCount",
          "type": "uint32"
        },
        {
          "internalType": "uint256",
          "name": "lastUploadTime",
          "type": "uint256"
        }
      ],
      "payable": false,
      "stateMutability": "view",
      "type": "function"
    },
    {
      "constant": false,
      "inputs": [
        {
          "internalType": "string",
          "name": "heartRate",
          "type": "string"
        },
        {
          "internalType": "string",
          "name": "heat",
          "type": "string"
        },
        {
          "internalType": "string",
          "name": "sleepQuality",
          "type": "string"
        },
        {
          "internalType": "string",
          "name": "distance",
          "type": "string"
        },
        {
          "internalType": "string",
          "name": "evaluation",
          "type": "string"
        },
        {
          "internalType": "string",
          "name": "uploadTime",
          "type": "string"
        },
        {
          "internalType": "uint8",
          "name": "permitVisit",
          "type": "uint8"
        }
      ],
      "name": "addData",
      "outputs": [],
      "payable": true,
      "stateMutability": "payable",
      "type": "function"
    },
    {
      "constant": true,
      "inputs": [],
      "name": "getHealthCount",
      "outputs": [
        {
          "internalType": "uint256",
          "name": "len",
          "type": "uint256"
        }
      ],
      "payable": false,
      "stateMutability": "view",
      "type": "function"
    },
    {
      "constant": true,
      "inputs": [],
      "name": "getPublicHealthCount",
      "outputs": [
        {
          "internalType": "uint256",
          "name": "len",
          "type": "uint256"
        }
      ],
      "payable": false,
      "stateMutability": "view",
      "type": "function"
    },
    {
      "constant": false,
      "inputs": [
        {
          "internalType": "string",
          "name": "organizationName",
          "type": "string"
        }
      ],
      "name": "authToOrg",
      "outputs": [],
      "payable": true,
      "stateMutability": "payable",
      "type": "function"
    },
    {
      "constant": true,
      "inputs": [
        {
          "internalType": "address",
          "name": "organization",
          "type": "address"
        }
      ],
      "name": "getAuthInfo",
      "outputs": [
        {
          "internalType": "uint256",
          "name": "",
          "type": "uint256"
        }
      ],
      "payable": false,
      "stateMutability": "view",
      "type": "function"
    },
    {
      "constant": true,
      "inputs": [
        {
          "internalType": "address",
          "name": "caller",
          "type": "address"
        },
        {
          "internalType": "uint256",
          "name": "idx",
          "type": "uint256"
        }
      ],
      "name": "getHDataByIndex",
      "outputs": [
        {
          "internalType": "string",
          "name": "heartRate",
          "type": "string"
        },
        {
          "internalType": "string",
          "name": "heat",
          "type": "string"
        },
        {
          "internalType": "string",
          "name": "sleepQuality",
          "type": "string"
        },
        {
          "internalType": "string",
          "name": "distance",
          "type": "string"
        },
        {
          "internalType": "string",
          "name": "evaluation",
          "type": "string"
        },
        {
          "internalType": "string",
          "name": "uploadTime",
          "type": "string"
        },
        {
          "internalType": "uint8",
          "name": "permitVisit",
          "type": "uint8"
        }
      ],
      "payable": false,
      "stateMutability": "view",
      "type": "function"
    }
  ],
  "bytecode": "0x608060405234801561001057600080fd5b50604051611f2a380380611f2a8339818101604052604081101561003357600080fd5b810190808051906020019092919080519060200190929190505050816000800160006101000a81548173ffffffffffffffffffffffffffffffffffffffff021916908373ffffffffffffffffffffffffffffffffffffffff16021790555060008060000160146101000a81548163ffffffff021916908363ffffffff1602179055506000806001018190555080600460006101000a81548173ffffffffffffffffffffffffffffffffffffffff021916908373ffffffffffffffffffffffffffffffffffffffff1602179055505050611e19806101116000396000f3fe60806040526004361061007b5760003560e01c806386d8e3e81161004e57806386d8e3e8146106195780639085dfa614610644578063a4f9e5d51461066f578063f8d5e0b71461072a5761007b565b80630d0ea0c61461007d578063398feecf1461014e57806343b67cad146105095780636386c1c71461056e575b005b34801561008957600080fd5b506100cc600480360360208110156100a057600080fd5b81019080803573ffffffffffffffffffffffffffffffffffffffff169060200190929190505050610a27565b6040518080602001838152602001828103825284818151815260200191508051906020019080838360005b838110156101125780820151818401526020810190506100f7565b50505050905090810190601f16801561013f5780820380516001836020036101000a031916815260200191505b50935050505060405180910390f35b610507600480360360e081101561016457600080fd5b810190808035906020019064010000000081111561018157600080fd5b82018360208201111561019357600080fd5b803590602001918460018302840111640100000000831117156101b557600080fd5b91908080601f016020809104026020016040519081016040528093929190818152602001838380828437600081840152601f19601f8201169050808301925050505050505091929192908035906020019064010000000081111561021857600080fd5b82018360208201111561022a57600080fd5b8035906020019184600183028401116401000000008311171561024c57600080fd5b91908080601f016020809104026020016040519081016040528093929190818152602001838380828437600081840152601f19601f820116905080830192505050505050509192919290803590602001906401000000008111156102af57600080fd5b8201836020820111156102c157600080fd5b803590602001918460018302840111640100000000831117156102e357600080fd5b91908080601f016020809104026020016040519081016040528093929190818152602001838380828437600081840152601f19601f8201169050808301925050505050505091929192908035906020019064010000000081111561034657600080fd5b82018360208201111561035857600080fd5b8035906020019184600183028401116401000000008311171561037a57600080fd5b91908080601f016020809104026020016040519081016040528093929190818152602001838380828437600081840152601f19601f820116905080830192505050505050509192919290803590602001906401000000008111156103dd57600080fd5b8201836020820111156103ef57600080fd5b8035906020019184600183028401116401000000008311171561041157600080fd5b91908080601f016020809104026020016040519081016040528093929190818152602001838380828437600081840152601f19601f8201169050808301925050505050505091929192908035906020019064010000000081111561047457600080fd5b82018360208201111561048657600080fd5b803590602001918460018302840111640100000000831117156104a857600080fd5b91908080601f016020809104026020016040519081016040528093929190818152602001838380828437600081840152601f19601f820116905080830192505050505050509192919290803560ff169060200190929190505050610ae3565b005b34801561051557600080fd5b506105586004803603602081101561052c57600080fd5b81019080803573ffffffffffffffffffffffffffffffffffffffff169060200190929190505050611017565b6040518082815260200191505060405180910390f35b34801561057a57600080fd5b506105bd6004803603602081101561059157600080fd5b81019080803573ffffffffffffffffffffffffffffffffffffffff169060200190929190505050611128565b604051808473ffffffffffffffffffffffffffffffffffffffff1673ffffffffffffffffffffffffffffffffffffffff1681526020018363ffffffff1663ffffffff168152602001828152602001935050505060405180910390f35b34801561062557600080fd5b5061062e611248565b6040518082815260200191505060405180910390f35b34801561065057600080fd5b506106596112b2565b6040518082815260200191505060405180910390f35b6107286004803603602081101561068557600080fd5b81019080803590602001906401000000008111156106a257600080fd5b8201836020820111156106b457600080fd5b803590602001918460018302840111640100000000831117156106d657600080fd5b91908080601f016020809104026020016040519081016040528093929190818152602001838380828437600081840152601f19601f8201169050808301925050505050505091929192905050506112c2565b005b34801561073657600080fd5b506107836004803603604081101561074d57600080fd5b81019080803573ffffffffffffffffffffffffffffffffffffffff1690602001909291908035906020019092919050505061156e565b604051808060200180602001806020018060200180602001806020018860ff1660ff16815260200187810387528e818151815260200191508051906020019080838360005b838110156107e35780820151818401526020810190506107c8565b50505050905090810190601f1680156108105780820380516001836020036101000a031916815260200191505b5087810386528d818151815260200191508051906020019080838360005b8381101561084957808201518184015260208101905061082e565b50505050905090810190601f1680156108765780820380516001836020036101000a031916815260200191505b5087810385528c818151815260200191508051906020019080838360005b838110156108af578082015181840152602081019050610894565b50505050905090810190601f1680156108dc5780820380516001836020036101000a031916815260200191505b5087810384528b818151815260200191508051906020019080838360005b838110156109155780820151818401526020810190506108fa565b50505050905090810190601f1680156109425780820380516001836020036101000a031916815260200191505b5087810383528a818151815260200191508051906020019080838360005b8381101561097b578082015181840152602081019050610960565b50505050905090810190601f1680156109a85780820380516001836020036101000a031916815260200191505b50878103825289818151815260200191508051906020019080838360005b838110156109e15780820151818401526020810190506109c6565b50505050905090810190601f168015610a0e5780820380516001836020036101000a031916815260200191505b509d505050505050505050505050505060405180910390f35b6003602052806000526040600020600091509050806000018054600181600116156101000203166002900480601f016020809104026020016040519081016040528092919081815260200182805460018160011615610100020316600290048015610ad35780601f10610aa857610100808354040283529160200191610ad3565b820191906000526020600020905b815481529060010190602001808311610ab657829003601f168201915b5050505050908060010154905082565b6000800160009054906101000a900473ffffffffffffffffffffffffffffffffffffffff1673ffffffffffffffffffffffffffffffffffffffff163373ffffffffffffffffffffffffffffffffffffffff1614610ba8576040517f08c379a000000000000000000000000000000000000000000000000000000000815260040180806020018281038252600c8152602001807fe6b2a1e69c89e69d83e99990000000000000000000000000000000000000000081525060200191505060405180910390fd5b600080600101541480610c635750600460009054906101000a900473ffffffffffffffffffffffffffffffffffffffff1673ffffffffffffffffffffffffffffffffffffffff1663a157def46040518163ffffffff1660e01b815260040160206040518083038186803b158015610c1e57600080fd5b505afa158015610c32573d6000803e3d6000fd5b505050506040513d6020811015610c4857600080fd5b81019080805190602001909291905050506000600101544203115b610cd5576040517f08c379a000000000000000000000000000000000000000000000000000000000815260040180806020018281038252600f8152602001807fe4b88ae4bca0e5a4aae9a291e7b981000000000000000000000000000000000081525060200191505060405180910390fd5b610cdd611c7f565b6040518060e001604052808981526020018881526020018781526020018681526020018581526020018481526020018360ff168152509050600281908060018154018082558091505090600182039060005260206000209060070201600090919290919091506000820151816000019080519060200190610d5f929190611cbf565b506020820151816001019080519060200190610d7c929190611cbf565b506040820151816002019080519060200190610d99929190611cbf565b506060820151816003019080519060200190610db6929190611cbf565b506080820151816004019080519060200190610dd3929190611cbf565b5060a0820151816005019080519060200190610df0929190611cbf565b5060c08201518160060160006101000a81548160ff021916908360ff1602179055505050504260006001018190555060018260ff161415610f19573373ffffffffffffffffffffffffffffffffffffffff166108fc600460009054906101000a900473ffffffffffffffffffffffffffffffffffffffff1673ffffffffffffffffffffffffffffffffffffffff1663fee503596040518163ffffffff1660e01b815260040160206040518083038186803b158015610ead57600080fd5b505afa158015610ec1573d6000803e3d6000fd5b505050506040513d6020811015610ed757600080fd5b81019080805190602001909291905050509081150290604051600060405180830381858888f19350505050158015610f13573d6000803e3d6000fd5b5061100d565b3373ffffffffffffffffffffffffffffffffffffffff166108fc6002600460009054906101000a900473ffffffffffffffffffffffffffffffffffffffff1673ffffffffffffffffffffffffffffffffffffffff1663fee503596040518163ffffffff1660e01b815260040160206040518083038186803b158015610f9d57600080fd5b505afa158015610fb1573d6000803e3d6000fd5b505050506040513d6020811015610fc757600080fd5b810190808051906020019092919050505081610fdf57fe5b049081150290604051600060405180830381858888f1935050505015801561100b573d6000803e3d6000fd5b505b5050505050505050565b600080600460009054906101000a900473ffffffffffffffffffffffffffffffffffffffff1673ffffffffffffffffffffffffffffffffffffffff16637cf9d2006040518163ffffffff1660e01b815260040160206040518083038186803b15801561108257600080fd5b505afa158015611096573d6000803e3d6000fd5b505050506040513d60208110156110ac57600080fd5b810190808051906020019092919050505090506000600360008573ffffffffffffffffffffffffffffffffffffffff1673ffffffffffffffffffffffffffffffffffffffff16815260200190815260200160002060010154420390508181101561111c5780820392505050611123565b6000925050505b919050565b60008060008060000160009054906101000a900473ffffffffffffffffffffffffffffffffffffffff1673ffffffffffffffffffffffffffffffffffffffff168473ffffffffffffffffffffffffffffffffffffffff16146111f2576040517f08c379a000000000000000000000000000000000000000000000000000000000815260040180806020018281038252600c8152602001807fe6b2a1e69c89e69d83e99990000000000000000000000000000000000000000081525060200191505060405180910390fd5b6000800160009054906101000a900473ffffffffffffffffffffffffffffffffffffffff1692506000800160149054906101000a900463ffffffff16915060006001015490508282829250925092509193909250565b600080905060008090505b6002805490508110156112ab5760016002828154811061126f57fe5b906000526020600020906007020160060160009054906101000a900460ff1660ff16141561129e576001820191505b8080600101915050611253565b5080905090565b6000600280549050905080905090565b6000600460009054906101000a900473ffffffffffffffffffffffffffffffffffffffff1673ffffffffffffffffffffffffffffffffffffffff16637d71812e6040518163ffffffff1660e01b815260040160206040518083038186803b15801561132c57600080fd5b505afa158015611340573d6000803e3d6000fd5b505050506040513d602081101561135657600080fd5b81019080805190602001909291905050509050803410156113df576040517f08c379a000000000000000000000000000000000000000000000000000000000815260040180806020018281038252600c8152602001807fe8b4b9e794a8e4b88de8b6b3000000000000000000000000000000000000000081525060200191505060405180910390fd5b3373ffffffffffffffffffffffffffffffffffffffff166108fc8234039081150290604051600060405180830381858888f19350505050158015611427573d6000803e3d6000fd5b506000800160009054906101000a900473ffffffffffffffffffffffffffffffffffffffff1673ffffffffffffffffffffffffffffffffffffffff166108fc829081150290604051600060405180830381858888f19350505050158015611492573d6000803e3d6000fd5b5081600360003373ffffffffffffffffffffffffffffffffffffffff1673ffffffffffffffffffffffffffffffffffffffff16815260200190815260200160002060000190805190602001906114e9929190611d3f565b5042600360003373ffffffffffffffffffffffffffffffffffffffff1673ffffffffffffffffffffffffffffffffffffffff1681526020019081526020016000206001018190555060016000800160148282829054906101000a900463ffffffff160192506101000a81548163ffffffff021916908363ffffffff1602179055505050565b606080606080606080600060028054905088106115f3576040517f08c379a000000000000000000000000000000000000000000000000000000000815260040180806020018281038252601b8152602001807fe6ada4e69da1e581a5e5bab7e695b0e68daee4b88de5ad98e59ca8000000000081525060200191505060405180910390fd5b6000800160009054906101000a900473ffffffffffffffffffffffffffffffffffffffff1673ffffffffffffffffffffffffffffffffffffffff168973ffffffffffffffffffffffffffffffffffffffff161480611659575060006116578a611017565b115b6116cb576040517f08c379a00000000000000000000000000000000000000000000000000000000081526004018080602001828103825260128152602001807fe6b2a1e69c89e8aebfe997aee69d83e99990000000000000000000000000000081525060200191505060405180910390fd5b6000600289815481106116da57fe5b906000526020600020906007020160060160009054906101000a900460ff1660ff1614801561175957506000800160009054906101000a900473ffffffffffffffffffffffffffffffffffffffff1673ffffffffffffffffffffffffffffffffffffffff168973ffffffffffffffffffffffffffffffffffffffff1614155b156117dc5760006040518060200160405280600081525090604051806020016040528060008152509060405180602001604052806000815250906040518060200160405280600081525090604051806020016040528060008152509060405180602001604052806000815250908090509650965096509650965096509650611c73565b600288815481106117e957fe5b90600052602060002090600702016000016002898154811061180757fe5b906000526020600020906007020160010160028a8154811061182557fe5b906000526020600020906007020160020160028b8154811061184357fe5b906000526020600020906007020160030160028c8154811061186157fe5b906000526020600020906007020160040160028d8154811061187f57fe5b906000526020600020906007020160050160028e8154811061189d57fe5b906000526020600020906007020160060160009054906101000a900460ff16868054600181600116156101000203166002900480601f0160208091040260200160405190810160405280929190818152602001828054600181600116156101000203166002900480156119515780601f1061192657610100808354040283529160200191611951565b820191906000526020600020905b81548152906001019060200180831161193457829003601f168201915b50505050509650858054600181600116156101000203166002900480601f0160208091040260200160405190810160405280929190818152602001828054600181600116156101000203166002900480156119ed5780601f106119c2576101008083540402835291602001916119ed565b820191906000526020600020905b8154815290600101906020018083116119d057829003601f168201915b50505050509550848054600181600116156101000203166002900480601f016020809104026020016040519081016040528092919081815260200182805460018160011615610100020316600290048015611a895780601f10611a5e57610100808354040283529160200191611a89565b820191906000526020600020905b815481529060010190602001808311611a6c57829003601f168201915b50505050509450838054600181600116156101000203166002900480601f016020809104026020016040519081016040528092919081815260200182805460018160011615610100020316600290048015611b255780601f10611afa57610100808354040283529160200191611b25565b820191906000526020600020905b815481529060010190602001808311611b0857829003601f168201915b50505050509350828054600181600116156101000203166002900480601f016020809104026020016040519081016040528092919081815260200182805460018160011615610100020316600290048015611bc15780601f10611b9657610100808354040283529160200191611bc1565b820191906000526020600020905b815481529060010190602001808311611ba457829003601f168201915b50505050509250818054600181600116156101000203166002900480601f016020809104026020016040519081016040528092919081815260200182805460018160011615610100020316600290048015611c5d5780601f10611c3257610100808354040283529160200191611c5d565b820191906000526020600020905b815481529060010190602001808311611c4057829003601f168201915b5050505050915096509650965096509650965096505b92959891949750929550565b6040518060e00160405280606081526020016060815260200160608152602001606081526020016060815260200160608152602001600060ff1681525090565b828054600181600116156101000203166002900490600052602060002090601f016020900481019282601f10611d0057805160ff1916838001178555611d2e565b82800160010185558215611d2e579182015b82811115611d2d578251825591602001919060010190611d12565b5b509050611d3b9190611dbf565b5090565b828054600181600116156101000203166002900490600052602060002090601f016020900481019282601f10611d8057805160ff1916838001178555611dae565b82800160010185558215611dae579182015b82811115611dad578251825591602001919060010190611d92565b5b509050611dbb9190611dbf565b5090565b611de191905b80821115611ddd576000816000905550600101611dc5565b5090565b9056fea265627a7a72315820ee67fbb96a92e8c84df9a6fb5cd3f922e3990208a7cde1d442b5f2b3c261084b64736f6c63430005100032",
  "source": "pragma solidity >=0.4.21 <0.7.0;\r\n\r\n//   -- \r\ninterface AdminContract{\r\n    function getAdminAddress()  external view returns(address);\r\n    function getPayforHealthData() external view returns(uint);\r\n    function getValidSection() external view returns(uint);\r\n    function getAward() external view returns(uint);\r\n    function getUploadSection() external view returns(uint);\r\n}\r\n\r\ncontract HealthContract{\r\n    // \r\n    struct H_Data{\r\n        string      heartRate;    // \r\n        string\t\theat;\t\t  // \r\n        string\t\tsleepQuality; // \r\n        string      distance;     // \r\n        string\t\tevaluation;   // \r\n        string\t\tuploadTime;\t  // \r\n        uint8       permitVisit;  // \r\n    }\r\n\r\n    struct User_Info{\r\n        address    owner;         // \r\n        uint32     visitCount;    // \r\n        uint       lastUploadTime;// \r\n    }\r\n\r\n    struct Visitor{\r\n        string    organizationName; // \r\n        uint      validDate;        // \r\n    }\r\n\r\n    // \r\n    User_Info          user;\r\n\r\n    // \r\n    H_Data[]           h_data;\r\n\r\n    // \r\n    mapping(address => Visitor) public visitors;\r\n\r\n    // \r\n    AdminContract adminContract;\r\n\r\n    // \r\n    constructor(address _owner, address _adminContractAddr) public{\r\n        // \r\n        user.owner = _owner;\r\n        user.visitCount = 0;\r\n        user.lastUploadTime = 0;\r\n        adminContract = AdminContract(_adminContractAddr);   //    --  \r\n    }\r\n\r\n    // \r\n    function getUserInfo(address caller) public view returns (address  owner, uint32 visitCount, uint lastUploadTime){\r\n        require(caller == user.owner,\"\");\r\n        owner = user.owner;\r\n        visitCount = user.visitCount;\r\n        lastUploadTime = user.lastUploadTime;\r\n        return (owner, visitCount, lastUploadTime);\r\n    }\r\n\r\n    // \r\n    function addData(string memory heartRate,string memory heat,string memory sleepQuality,\r\n        string memory distance,string memory evaluation,string memory uploadTime,uint8 permitVisit) public payable{\r\n        require(msg.sender == user.owner,\"\");\r\n        require(user.lastUploadTime == 0 || ((block.timestamp - user.lastUploadTime) > adminContract.getUploadSection()), \"\"); //\r\n        // \r\n        H_Data memory item = H_Data(\r\n            {\r\n                heartRate: heartRate,\r\n\t\t\t\theat: heat,\r\n\t\t\t\tsleepQuality: sleepQuality,\r\n\t\t\t\tdistance: distance,\r\n\t\t\t\tevaluation: evaluation,\r\n\t\t\t\tuploadTime: uploadTime,\r\n                permitVisit: permitVisit\r\n            });\r\n        h_data.push(item);\r\n\r\n        user.lastUploadTime = block.timestamp;      // \r\n\r\n        // ()\r\n        if(permitVisit == 1){\r\n            msg.sender.transfer(adminContract.getAward());\r\n        } else {\r\n            msg.sender.transfer(adminContract.getAward() / 2);\r\n        }\r\n    }\r\n\r\n    // (+)\r\n    function getHealthCount() public view returns(uint len){\r\n        len = h_data.length;\r\n        return len;\r\n    }\r\n\r\n    // \r\n    function getPublicHealthCount() public view returns(uint len){\r\n        len = 0;\r\n        for(uint i = 0; i < h_data.length; i++){\r\n            if(h_data[i].permitVisit == 1){\r\n                len += 1;\r\n            }\r\n        }\r\n        return len;\r\n    }\r\n\r\n    // ()\r\n    function authToOrg(string memory organizationName) public payable{\r\n        uint payforHealthData = adminContract.getPayforHealthData();\r\n        require(msg.value >= payforHealthData, \"\");\r\n\r\n        msg.sender.transfer(msg.value - payforHealthData);                       //  \r\n        address(uint160(user.owner)).transfer(payforHealthData);                 //  \r\n\r\n        visitors[msg.sender].organizationName = organizationName;\r\n        visitors[msg.sender].validDate = block.timestamp;\r\n        user.visitCount += 1;\r\n    }\r\n\r\n    // ()\r\n    function getAuthInfo(address organization) public view returns(uint){\r\n        uint validSection = adminContract.getValidSection();\r\n        uint time = block.timestamp - visitors[organization].validDate;\r\n        if(time < validSection){\r\n            return validSection - time;\r\n        } else {\r\n            return 0;\r\n        }\r\n    }\r\n\r\n    // ,()\r\n    function getHDataByIndex(address caller, uint idx) public view returns (string memory heartRate,\r\n        string memory heat,string memory sleepQuality,string memory distance,string memory evaluation,string memory uploadTime,uint8 permitVisit) {\r\n    \t// \r\n        require(idx < h_data.length, \"\");\r\n        // \r\n        require(caller == user.owner || getAuthInfo(caller) > 0, \"\");\r\n        // \r\n        if(h_data[idx].permitVisit == 0 && caller != user.owner){\r\n            return (\"\", \"\", \"\", \"\", \"\", \"\", 0);\r\n        }\r\n        return (h_data[idx].heartRate, h_data[idx].heat,h_data[idx].sleepQuality,h_data[idx].distance,h_data[idx].evaluation,\r\n            h_data[idx].uploadTime,h_data[idx].permitVisit);\r\n    }\r\n\r\n    function()external payable{\r\n    }\r\n}\r\n",
  "sourcePath": "E:\\Blockchain\\value1\\contracts\\HealthContract.sol",
  "compiler": {
    "name": "solc",
    "version": "0.5.16+commit.9c3226ce.Emscripten.clang"
  },
  "schemaVersion": "3.0.23",
  "updatedAt": "2020-04-03T13:49:50.963Z",
  "networkType": "ethereum",
  "devdoc": {
    "methods": {}
  },
  "userdoc": {
    "methods": {}
  }
}