{
  "contractName": "Org_UserList",
  "abi": [
    {
      "inputs": [
        {
          "internalType": "address",
          "name": "_adminContractAddr",
          "type": "address"
        }
      ],
      "payable": false,
      "stateMutability": "nonpayable",
      "type": "constructor"
    },
    {
      "constant": true,
      "inputs": [
        {
          "internalType": "address",
          "name": "orgAddr",
          "type": "address"
        }
      ],
      "name": "getUserList",
      "outputs": [
        {
          "internalType": "address[]",
          "name": "",
          "type": "address[]"
        }
      ],
      "payable": false,
      "stateMutability": "view",
      "type": "function"
    },
    {
      "constant": false,
      "inputs": [
        {
          "internalType": "address",
          "name": "orgAddr",
          "type": "address"
        },
        {
          "internalType": "address",
          "name": "userAddr",
          "type": "address"
        }
      ],
      "name": "addUser",
      "outputs": [],
      "payable": false,
      "stateMutability": "nonpayable",
      "type": "function"
    }
  ],
  "bytecode": "0x608060405234801561001057600080fd5b506040516104ae3803806104ae8339818101604052602081101561003357600080fd5b810190808051906020019092919050505080600160006101000a81548173ffffffffffffffffffffffffffffffffffffffff021916908373ffffffffffffffffffffffffffffffffffffffff160217905550600160009054906101000a900473ffffffffffffffffffffffffffffffffffffffff16600260006101000a81548173ffffffffffffffffffffffffffffffffffffffff021916908373ffffffffffffffffffffffffffffffffffffffff160217905550506103b6806100f86000396000f3fe608060405234801561001057600080fd5b50600436106100365760003560e01c80638ca3b4481461003b5780639c73dbe61461009f575b600080fd5b61009d6004803603604081101561005157600080fd5b81019080803573ffffffffffffffffffffffffffffffffffffffff169060200190929190803573ffffffffffffffffffffffffffffffffffffffff169060200190929190505050610138565b005b6100e1600480360360208110156100b557600080fd5b81019080803573ffffffffffffffffffffffffffffffffffffffff1690602001909291905050506102b5565b6040518080602001828103825283818151815260200191508051906020019060200280838360005b83811015610124578082015181840152602081019050610109565b505050509050019250505060405180910390f35b600260009054906101000a900473ffffffffffffffffffffffffffffffffffffffff1673ffffffffffffffffffffffffffffffffffffffff1663b2e6b9126040518163ffffffff1660e01b815260040160206040518083038186803b1580156101a057600080fd5b505afa1580156101b4573d6000803e3d6000fd5b505050506040513d60208110156101ca57600080fd5b810190808051906020019092919050505073ffffffffffffffffffffffffffffffffffffffff163373ffffffffffffffffffffffffffffffffffffffff161461020f57fe5b6000808373ffffffffffffffffffffffffffffffffffffffff1673ffffffffffffffffffffffffffffffffffffffff1681526020019081526020016000208190806001815401808255809150509060018203906000526020600020016000909192909190916101000a81548173ffffffffffffffffffffffffffffffffffffffff021916908373ffffffffffffffffffffffffffffffffffffffff160217905550505050565b60606000808373ffffffffffffffffffffffffffffffffffffffff1673ffffffffffffffffffffffffffffffffffffffff16815260200190815260200160002080548060200260200160405190810160405280929190818152602001828054801561037557602002820191906000526020600020905b8160009054906101000a900473ffffffffffffffffffffffffffffffffffffffff1673ffffffffffffffffffffffffffffffffffffffff168152602001906001019080831161032b575b5050505050905091905056fea265627a7a72315820f3ace29fb9a18d7e75ffb346d094ddc30fba40c0a58ef58a0a28b04c8a972a5964736f6c63430005100032",
  "source": "pragma solidity >=0.4.21 <0.7.0;\r\n\r\n// 声明其他合约的接口  -- 授权合约\r\ninterface AdminContract{\r\n    function getAdminAddress()  external view returns(address);\r\n}\r\n\r\ncontract Org_UserList{\r\n\r\n  // 机构和用户的映射\r\n  mapping(address => address[]) userList;\r\n\r\n  // 其他合约地址\r\n  address adminContractAddr;\r\n\r\n  // 其他合约实例\r\n  AdminContract adminContract;\r\n\r\n  // 构造函数 -- 指定调用合约的地址\r\n  constructor(address _adminContractAddr) public{\r\n    adminContractAddr = _adminContractAddr;\r\n    adminContract = AdminContract(adminContractAddr);   // 通过地址拿到合约实例   --  将地址强制转换为合约\r\n  }\r\n\r\n  // 获取机构对应的用户列表\r\n  function getUserList(address orgAddr) public view returns(address[] memory) {\r\n\r\n    return userList[orgAddr];\r\n  }\r\n\r\n  // 为机构添加用户\r\n  function addUser(address orgAddr, address userAddr) public {\r\n\r\n    assert(msg.sender == adminContract.getAdminAddress());\r\n    userList[orgAddr].push(userAddr);\r\n  }\r\n\r\n}\r\n",
  "sourcePath": "E:\\androidCode\\blockchain\\HealthChainServer\\contracts\\Org_UserList.sol",
  "compiler": {
    "name": "solc",
    "version": "0.5.16+commit.9c3226ce.Emscripten.clang"
  },
  "schemaVersion": "3.0.23",
  "updatedAt": "2020-04-03T02:57:07.533Z",
  "networkType": "ethereum",
  "devdoc": {
    "methods": {}
  },
  "userdoc": {
    "methods": {}
  }
}